{
  "contractName": "TodoList",
  "abi": [
    {
      "inputs": [],
      "stateMutability": "nonpayable",
      "type": "constructor"
    },
    {
      "anonymous": false,
      "inputs": [
        {
          "indexed": false,
          "internalType": "uint256",
          "name": "",
          "type": "uint256"
        },
        {
          "indexed": false,
          "internalType": "uint256",
          "name": "",
          "type": "uint256"
        },
        {
          "indexed": false,
          "internalType": "string",
          "name": "",
          "type": "string"
        },
        {
          "indexed": false,
          "internalType": "string",
          "name": "",
          "type": "string"
        },
        {
          "indexed": false,
          "internalType": "bool",
          "name": "",
          "type": "bool"
        }
      ],
      "name": "TaskCreated",
      "type": "event"
    },
    {
      "inputs": [],
      "name": "taskCount",
      "outputs": [
        {
          "internalType": "uint256",
          "name": "",
          "type": "uint256"
        }
      ],
      "stateMutability": "view",
      "type": "function",
      "constant": true
    },
    {
      "inputs": [
        {
          "internalType": "string",
          "name": "_content",
          "type": "string"
        },
        {
          "internalType": "string",
          "name": "_author",
          "type": "string"
        }
      ],
      "name": "createTask",
      "outputs": [],
      "stateMutability": "nonpayable",
      "type": "function"
    },
    {
      "inputs": [
        {
          "internalType": "uint256",
          "name": "_id",
          "type": "uint256"
        }
      ],
      "name": "getTask",
      "outputs": [
        {
          "internalType": "uint256",
          "name": "",
          "type": "uint256"
        },
        {
          "internalType": "uint256",
          "name": "",
          "type": "uint256"
        },
        {
          "internalType": "string",
          "name": "",
          "type": "string"
        },
        {
          "internalType": "string",
          "name": "",
          "type": "string"
        },
        {
          "internalType": "bool",
          "name": "",
          "type": "bool"
        }
      ],
      "stateMutability": "view",
      "type": "function",
      "constant": true
    }
  ],
  "bytecode": "0x60806040526000805534801561001457600080fd5b50610937806100246000396000f3fe608060405234801561001057600080fd5b50600436106100415760003560e01c80631d65e77e14610046578063292a45851461007a578063b6cb58a514610096575b600080fd5b610060600480360381019061005b91906104a3565b6100b4565b604051610071959493929190610593565b60405180910390f35b610094600480360381019061008f9190610729565b6102a2565b005b61009e6103b0565b6040516100ab91906107a1565b60405180910390f35b6000806060806000856000811180156100cf57506000548111155b61010e576040517f08c379a000000000000000000000000000000000000000000000000000000000815260040161010590610808565b60405180910390fd5b866001600089815260200190815260200160002060010154600160008a8152602001908152602001600020600201600160008b8152602001908152602001600020600301600160008c815260200190815260200160002060040160009054906101000a900460ff1682805461018290610857565b80601f01602080910402602001604051908101604052809291908181526020018280546101ae90610857565b80156101fb5780601f106101d0576101008083540402835291602001916101fb565b820191906000526020600020905b8154815290600101906020018083116101de57829003601f168201915b5050505050925081805461020e90610857565b80601f016020809104026020016040519081016040528092919081815260200182805461023a90610857565b80156102875780601f1061025c57610100808354040283529160200191610287565b820191906000526020600020905b81548152906001019060200180831161026a57829003601f168201915b50505050509150955095509550955095505091939590929450565b6000808154809291906102b4906108b8565b91905055506040518060a001604052806000548152602001428152602001838152602001828152602001600015158152506001600080548152602001908152602001600020600082015181600001556020820151816001015560408201518160020190805190602001906103299291906103b6565b5060608201518160030190805190602001906103469291906103b6565b5060808201518160040160006101000a81548160ff0219169083151502179055509050507fb322bdd3250d405f7845d27fa1f0753f8f7e18e40886bc254b89005c3e9c032460005442848460006040516103a4959493929190610593565b60405180910390a15050565b60005481565b8280546103c290610857565b90600052602060002090601f0160209004810192826103e4576000855561042b565b82601f106103fd57805160ff191683800117855561042b565b8280016001018555821561042b579182015b8281111561042a57825182559160200191906001019061040f565b5b509050610438919061043c565b5090565b5b8082111561045557600081600090555060010161043d565b5090565b6000604051905090565b600080fd5b600080fd5b6000819050919050565b6104808161046d565b811461048b57600080fd5b50565b60008135905061049d81610477565b92915050565b6000602082840312156104b9576104b8610463565b5b60006104c78482850161048e565b91505092915050565b6104d98161046d565b82525050565b600081519050919050565b600082825260208201905092915050565b60005b838110156105195780820151818401526020810190506104fe565b83811115610528576000848401525b50505050565b6000601f19601f8301169050919050565b600061054a826104df565b61055481856104ea565b93506105648185602086016104fb565b61056d8161052e565b840191505092915050565b60008115159050919050565b61058d81610578565b82525050565b600060a0820190506105a860008301886104d0565b6105b560208301876104d0565b81810360408301526105c7818661053f565b905081810360608301526105db818561053f565b90506105ea6080830184610584565b9695505050505050565b600080fd5b600080fd5b7f4e487b7100000000000000000000000000000000000000000000000000000000600052604160045260246000fd5b6106368261052e565b810181811067ffffffffffffffff82111715610655576106546105fe565b5b80604052505050565b6000610668610459565b9050610674828261062d565b919050565b600067ffffffffffffffff821115610694576106936105fe565b5b61069d8261052e565b9050602081019050919050565b82818337600083830152505050565b60006106cc6106c784610679565b61065e565b9050828152602081018484840111156106e8576106e76105f9565b5b6106f38482856106aa565b509392505050565b600082601f8301126107105761070f6105f4565b5b81356107208482602086016106b9565b91505092915050565b600080604083850312156107405761073f610463565b5b600083013567ffffffffffffffff81111561075e5761075d610468565b5b61076a858286016106fb565b925050602083013567ffffffffffffffff81111561078b5761078a610468565b5b610797858286016106fb565b9150509250929050565b60006020820190506107b660008301846104d0565b92915050565b7f5461736b20646f6e277420657869737421210000000000000000000000000000600082015250565b60006107f26012836104ea565b91506107fd826107bc565b602082019050919050565b60006020820190508181036000830152610821816107e5565b9050919050565b7f4e487b7100000000000000000000000000000000000000000000000000000000600052602260045260246000fd5b6000600282049050600182168061086f57607f821691505b6020821081141561088357610882610828565b5b50919050565b7f4e487b7100000000000000000000000000000000000000000000000000000000600052601160045260246000fd5b60006108c38261046d565b91507fffffffffffffffffffffffffffffffffffffffffffffffffffffffffffffffff8214156108f6576108f5610889565b5b60018201905091905056fea26469706673582212207c74228ecd5b4495ce8fc52bae14e59b5947e858d14ebddb6a0c881dfd6326a464736f6c634300080a0033",
  "immutableReferences": {},
  "source": "// SPDX-License-Identifier: MIT\npragma solidity >=0.4.22 <0.9.0;\n\ncontract TodoList {\n    struct Task {\n        uint256 id;\n        uint256 date;\n        string content;\n        string author;\n        bool done;\n    }\n\n    uint256 public taskCount = 0;\n    mapping(uint256 => Task) tasks;\n\n    event TaskCreated(uint256, uint256, string, string, bool);\n\n    constructor() {}\n\n    modifier taskExist(uint256 _id) {\n        require(_id > 0 && _id <= taskCount, \"Task don't exist!!\");\n        _;\n    }\n\n    function createTask(string memory _content, string memory _author) public {\n        taskCount++;\n        tasks[taskCount] = Task(\n            taskCount,\n            block.timestamp,\n            _content,\n            _author,\n            false\n        );\n        emit TaskCreated(taskCount, block.timestamp, _content, _author, false);\n    }\n\n    function getTask(uint256 _id)\n        public\n        view\n        taskExist(_id)\n        returns (\n            uint256,\n            uint256,\n            string memory,\n            string memory,\n            bool\n        )\n    {\n        return (\n            _id,\n            tasks[_id].date,\n            tasks[_id].content,\n            tasks[_id].author,\n            tasks[_id].done\n        );\n    }\n}\n",
  "sourcePath": "/home/ngocphuc/Documents/github.com/blockchain/eth-todo-list/contracts/TodoList.sol",
  "compiler": {
    "name": "solc",
    "version": "0.8.10+commit.fc410830.Emscripten.clang"
  },
  "schemaVersion": "3.4.3",
  "updatedAt": "2021-12-22T03:54:30.641Z",
  "networkType": "ethereum",
  "devdoc": {
    "kind": "dev",
    "methods": {},
    "version": 1
  },
  "userdoc": {
    "kind": "user",
    "methods": {},
    "version": 1
  }
}