{
  "contractName": "TodoList",
  "abi": [
    {
      "anonymous": false,
      "inputs": [
        {
          "indexed": false,
          "internalType": "uint256",
          "name": "",
          "type": "uint256"
        },
        {
          "indexed": false,
          "internalType": "uint256",
          "name": "",
          "type": "uint256"
        },
        {
          "indexed": false,
          "internalType": "string",
          "name": "",
          "type": "string"
        },
        {
          "indexed": false,
          "internalType": "string",
          "name": "",
          "type": "string"
        },
        {
          "indexed": false,
          "internalType": "bool",
          "name": "",
          "type": "bool"
        }
      ],
      "name": "TaskCreated",
      "type": "event"
    },
    {
      "inputs": [],
      "name": "taskCount",
      "outputs": [
        {
          "internalType": "uint256",
          "name": "",
          "type": "uint256"
        }
      ],
      "stateMutability": "view",
      "type": "function",
      "constant": true
    },
    {
      "inputs": [
        {
          "internalType": "uint256",
          "name": "",
          "type": "uint256"
        }
      ],
      "name": "tasks",
      "outputs": [
        {
          "internalType": "uint256",
          "name": "id",
          "type": "uint256"
        },
        {
          "internalType": "uint256",
          "name": "date",
          "type": "uint256"
        },
        {
          "internalType": "string",
          "name": "content",
          "type": "string"
        },
        {
          "internalType": "string",
          "name": "author",
          "type": "string"
        },
        {
          "internalType": "bool",
          "name": "done",
          "type": "bool"
        }
      ],
      "stateMutability": "view",
      "type": "function",
      "constant": true
    },
    {
      "inputs": [
        {
          "internalType": "string",
          "name": "_content",
          "type": "string"
        },
        {
          "internalType": "string",
          "name": "_author",
          "type": "string"
        }
      ],
      "name": "createTask",
      "outputs": [],
      "stateMutability": "nonpayable",
      "type": "function"
    }
  ],
  "bytecode": "0x60806040526000805534801561001457600080fd5b50610830806100246000396000f3fe608060405234801561001057600080fd5b50600436106100415760003560e01c8063292a4585146100465780638d97767214610062578063b6cb58a514610096575b600080fd5b610060600480360381019061005b9190610518565b6100b4565b005b61007c600480360381019061007791906105c6565b6101c2565b60405161008d9594939291906106a5565b60405180910390f35b61009e610315565b6040516100ab9190610706565b60405180910390f35b6000808154809291906100c690610750565b91905055506040518060a0016040528060005481526020014281526020018381526020018281526020016000151581525060016000805481526020019081526020016000206000820151816000015560208201518160010155604082015181600201908051906020019061013b92919061031b565b50606082015181600301908051906020019061015892919061031b565b5060808201518160040160006101000a81548160ff0219169083151502179055509050507fb322bdd3250d405f7845d27fa1f0753f8f7e18e40886bc254b89005c3e9c032460005442848460006040516101b69594939291906106a5565b60405180910390a15050565b60016020528060005260406000206000915090508060000154908060010154908060020180546101f1906107c8565b80601f016020809104026020016040519081016040528092919081815260200182805461021d906107c8565b801561026a5780601f1061023f5761010080835404028352916020019161026a565b820191906000526020600020905b81548152906001019060200180831161024d57829003601f168201915b50505050509080600301805461027f906107c8565b80601f01602080910402602001604051908101604052809291908181526020018280546102ab906107c8565b80156102f85780601f106102cd576101008083540402835291602001916102f8565b820191906000526020600020905b8154815290600101906020018083116102db57829003601f168201915b5050505050908060040160009054906101000a900460ff16905085565b60005481565b828054610327906107c8565b90600052602060002090601f0160209004810192826103495760008555610390565b82601f1061036257805160ff1916838001178555610390565b82800160010185558215610390579182015b8281111561038f578251825591602001919060010190610374565b5b50905061039d91906103a1565b5090565b5b808211156103ba5760008160009055506001016103a2565b5090565b6000604051905090565b600080fd5b600080fd5b600080fd5b600080fd5b6000601f19601f8301169050919050565b7f4e487b7100000000000000000000000000000000000000000000000000000000600052604160045260246000fd5b610425826103dc565b810181811067ffffffffffffffff82111715610444576104436103ed565b5b80604052505050565b60006104576103be565b9050610463828261041c565b919050565b600067ffffffffffffffff821115610483576104826103ed565b5b61048c826103dc565b9050602081019050919050565b82818337600083830152505050565b60006104bb6104b684610468565b61044d565b9050828152602081018484840111156104d7576104d66103d7565b5b6104e2848285610499565b509392505050565b600082601f8301126104ff576104fe6103d2565b5b813561050f8482602086016104a8565b91505092915050565b6000806040838503121561052f5761052e6103c8565b5b600083013567ffffffffffffffff81111561054d5761054c6103cd565b5b610559858286016104ea565b925050602083013567ffffffffffffffff81111561057a576105796103cd565b5b610586858286016104ea565b9150509250929050565b6000819050919050565b6105a381610590565b81146105ae57600080fd5b50565b6000813590506105c08161059a565b92915050565b6000602082840312156105dc576105db6103c8565b5b60006105ea848285016105b1565b91505092915050565b6105fc81610590565b82525050565b600081519050919050565b600082825260208201905092915050565b60005b8381101561063c578082015181840152602081019050610621565b8381111561064b576000848401525b50505050565b600061065c82610602565b610666818561060d565b935061067681856020860161061e565b61067f816103dc565b840191505092915050565b60008115159050919050565b61069f8161068a565b82525050565b600060a0820190506106ba60008301886105f3565b6106c760208301876105f3565b81810360408301526106d98186610651565b905081810360608301526106ed8185610651565b90506106fc6080830184610696565b9695505050505050565b600060208201905061071b60008301846105f3565b92915050565b7f4e487b7100000000000000000000000000000000000000000000000000000000600052601160045260246000fd5b600061075b82610590565b91507fffffffffffffffffffffffffffffffffffffffffffffffffffffffffffffffff82141561078e5761078d610721565b5b600182019050919050565b7f4e487b7100000000000000000000000000000000000000000000000000000000600052602260045260246000fd5b600060028204905060018216806107e057607f821691505b602082108114156107f4576107f3610799565b5b5091905056fea2646970667358221220fb7dcf4a3ca890bc5b9645b6cdf4453eb5c3393a5b14a634f3b844090d205e1964736f6c634300080a0033",
  "immutableReferences": {},
  "source": "// SPDX-License-Identifier: MIT\npragma solidity >=0.4.22 <0.9.0;\n\ncontract TodoList {\n    struct Task {\n        uint256 id;\n        uint256 date;\n        string content;\n        string author;\n        bool done;\n    }\n\n    uint256 public taskCount = 0;\n    mapping(uint256 => Task) public tasks;\n\n    event TaskCreated(uint256, uint256, string, string, bool);\n\n    function createTask(string memory _content, string memory _author) public {\n        taskCount++;\n        tasks[taskCount] = Task(\n            taskCount,\n            block.timestamp,\n            _content,\n            _author,\n            false\n        );\n        emit TaskCreated(taskCount, block.timestamp, _content, _author, false);\n    }\n}\n",
  "sourcePath": "/home/ngocphuc/Documents/github.com/blockchain/eth-todo-list/contracts/TodoList.sol",
  "compiler": {
    "name": "solc",
    "version": "0.8.10+commit.fc410830.Emscripten.clang"
  },
  "schemaVersion": "3.4.3",
  "updatedAt": "2021-12-22T07:54:58.189Z",
  "networkType": "ethereum",
  "devdoc": {
    "kind": "dev",
    "methods": {},
    "version": 1
  },
  "userdoc": {
    "kind": "user",
    "methods": {},
    "version": 1
  }
}