{
  "contractName": "TodoList",
  "abi": [
    {
      "inputs": [],
      "stateMutability": "nonpayable",
      "type": "constructor"
    },
    {
      "anonymous": false,
      "inputs": [
        {
          "indexed": false,
          "internalType": "uint256",
          "name": "",
          "type": "uint256"
        },
        {
          "indexed": false,
          "internalType": "uint256",
          "name": "",
          "type": "uint256"
        },
        {
          "indexed": false,
          "internalType": "string",
          "name": "",
          "type": "string"
        },
        {
          "indexed": false,
          "internalType": "string",
          "name": "",
          "type": "string"
        },
        {
          "indexed": false,
          "internalType": "bool",
          "name": "",
          "type": "bool"
        }
      ],
      "name": "TaskCreated",
      "type": "event"
    },
    {
      "inputs": [
        {
          "internalType": "string",
          "name": "_content",
          "type": "string"
        },
        {
          "internalType": "string",
          "name": "_author",
          "type": "string"
        }
      ],
      "name": "createTask",
      "outputs": [],
      "stateMutability": "nonpayable",
      "type": "function"
    },
    {
      "inputs": [
        {
          "internalType": "uint256",
          "name": "_id",
          "type": "uint256"
        }
      ],
      "name": "getTask",
      "outputs": [
        {
          "internalType": "uint256",
          "name": "",
          "type": "uint256"
        },
        {
          "internalType": "uint256",
          "name": "",
          "type": "uint256"
        },
        {
          "internalType": "string",
          "name": "",
          "type": "string"
        },
        {
          "internalType": "string",
          "name": "",
          "type": "string"
        },
        {
          "internalType": "bool",
          "name": "",
          "type": "bool"
        }
      ],
      "stateMutability": "view",
      "type": "function",
      "constant": true
    },
    {
      "inputs": [],
      "name": "getTaskIds",
      "outputs": [
        {
          "internalType": "uint256[]",
          "name": "",
          "type": "uint256[]"
        }
      ],
      "stateMutability": "view",
      "type": "function",
      "constant": true
    }
  ],
  "bytecode": "0x608060405234801561001057600080fd5b5060008081905550610a7a806100276000396000f3fe608060405234801561001057600080fd5b50600436106100415760003560e01c80631d65e77e14610046578063292a45851461007a578063bcd1480514610096575b600080fd5b610060600480360381019061005b9190610521565b6100b4565b604051610071959493929190610611565b60405180910390f35b610094600480360381019061008f91906107a7565b6102a3565b005b61009e6103dc565b6040516100ab91906108dd565b60405180910390f35b600080606080600085600081101580156100d057506000548111155b61010f576040517f08c379a00000000000000000000000000000000000000000000000000000000081526004016101069061094b565b60405180910390fd5b866001600089815260200190815260200160002060010154600160008a8152602001908152602001600020600201600160008b8152602001908152602001600020600301600160008c815260200190815260200160002060040160009054906101000a900460ff168280546101839061099a565b80601f01602080910402602001604051908101604052809291908181526020018280546101af9061099a565b80156101fc5780601f106101d1576101008083540402835291602001916101fc565b820191906000526020600020905b8154815290600101906020018083116101df57829003601f168201915b5050505050925081805461020f9061099a565b80601f016020809104026020016040519081016040528092919081815260200182805461023b9061099a565b80156102885780601f1061025d57610100808354040283529160200191610288565b820191906000526020600020905b81548152906001019060200180831161026b57829003601f168201915b50505050509150955095509550955095505091939590929450565b6000808154809291906102b5906109fb565b91905055506040518060a0016040528060005481526020014281526020018381526020018281526020016000151581525060016000805481526020019081526020016000206000820151816000015560208201518160010155604082015181600201908051906020019061032a929190610434565b506060820151816003019080519060200190610347929190610434565b5060808201518160040160006101000a81548160ff021916908315150217905550905050600260005490806001815401808255809150506001900390600052602060002001600090919091909150557fb322bdd3250d405f7845d27fa1f0753f8f7e18e40886bc254b89005c3e9c032460005442848460006040516103d0959493929190610611565b60405180910390a15050565b6060600280548060200260200160405190810160405280929190818152602001828054801561042a57602002820191906000526020600020905b815481526020019060010190808311610416575b5050505050905090565b8280546104409061099a565b90600052602060002090601f01602090048101928261046257600085556104a9565b82601f1061047b57805160ff19168380011785556104a9565b828001600101855582156104a9579182015b828111156104a857825182559160200191906001019061048d565b5b5090506104b691906104ba565b5090565b5b808211156104d35760008160009055506001016104bb565b5090565b6000604051905090565b600080fd5b600080fd5b6000819050919050565b6104fe816104eb565b811461050957600080fd5b50565b60008135905061051b816104f5565b92915050565b600060208284031215610537576105366104e1565b5b60006105458482850161050c565b91505092915050565b610557816104eb565b82525050565b600081519050919050565b600082825260208201905092915050565b60005b8381101561059757808201518184015260208101905061057c565b838111156105a6576000848401525b50505050565b6000601f19601f8301169050919050565b60006105c88261055d565b6105d28185610568565b93506105e2818560208601610579565b6105eb816105ac565b840191505092915050565b60008115159050919050565b61060b816105f6565b82525050565b600060a082019050610626600083018861054e565b610633602083018761054e565b818103604083015261064581866105bd565b9050818103606083015261065981856105bd565b90506106686080830184610602565b9695505050505050565b600080fd5b600080fd5b7f4e487b7100000000000000000000000000000000000000000000000000000000600052604160045260246000fd5b6106b4826105ac565b810181811067ffffffffffffffff821117156106d3576106d261067c565b5b80604052505050565b60006106e66104d7565b90506106f282826106ab565b919050565b600067ffffffffffffffff8211156107125761071161067c565b5b61071b826105ac565b9050602081019050919050565b82818337600083830152505050565b600061074a610745846106f7565b6106dc565b90508281526020810184848401111561076657610765610677565b5b610771848285610728565b509392505050565b600082601f83011261078e5761078d610672565b5b813561079e848260208601610737565b91505092915050565b600080604083850312156107be576107bd6104e1565b5b600083013567ffffffffffffffff8111156107dc576107db6104e6565b5b6107e885828601610779565b925050602083013567ffffffffffffffff811115610809576108086104e6565b5b61081585828601610779565b9150509250929050565b600081519050919050565b600082825260208201905092915050565b6000819050602082019050919050565b610854816104eb565b82525050565b6000610866838361084b565b60208301905092915050565b6000602082019050919050565b600061088a8261081f565b610894818561082a565b935061089f8361083b565b8060005b838110156108d05781516108b7888261085a565b97506108c283610872565b9250506001810190506108a3565b5085935050505092915050565b600060208201905081810360008301526108f7818461087f565b905092915050565b7f5461736b20646f6e277420657869737421210000000000000000000000000000600082015250565b6000610935601283610568565b9150610940826108ff565b602082019050919050565b6000602082019050818103600083015261096481610928565b9050919050565b7f4e487b7100000000000000000000000000000000000000000000000000000000600052602260045260246000fd5b600060028204905060018216806109b257607f821691505b602082108114156109c6576109c561096b565b5b50919050565b7f4e487b7100000000000000000000000000000000000000000000000000000000600052601160045260246000fd5b6000610a06826104eb565b91507fffffffffffffffffffffffffffffffffffffffffffffffffffffffffffffffff821415610a3957610a386109cc565b5b60018201905091905056fea2646970667358221220098e1e16f4f901c380b7e58680ca076b66849b54eba9c6c67780339efa32411d64736f6c634300080a0033",
  "immutableReferences": {},
  "source": "// SPDX-License-Identifier: MIT\npragma solidity >=0.4.22 <0.9.0;\n\ncontract TodoList {\n    struct Task {\n        uint256 id;\n        uint256 date;\n        string content;\n        string author;\n        bool done;\n    }\n\n    uint256 lastTaskId;\n    mapping(uint256 => Task) tasks;\n    uint256[] taskIds;\n\n    event TaskCreated(uint256, uint256, string, string, bool);\n\n    constructor() {\n        lastTaskId = 0;\n    }\n\n    modifier taskExist(uint256 _id) {\n        require(_id >= 0 && _id <= lastTaskId, \"Task don't exist!!\");\n        _;\n    }\n\n    function createTask(string memory _content, string memory _author) public {\n        lastTaskId++;\n        tasks[lastTaskId] = Task(\n            lastTaskId,\n            block.timestamp,\n            _content,\n            _author,\n            false\n        );\n        taskIds.push(lastTaskId);\n        emit TaskCreated(lastTaskId, block.timestamp, _content, _author, false);\n    }\n\n    function getTask(uint256 _id)\n        public\n        view\n        taskExist(_id)\n        returns (\n            uint256,\n            uint256,\n            string memory,\n            string memory,\n            bool\n        )\n    {\n        return (\n            _id,\n            tasks[_id].date,\n            tasks[_id].content,\n            tasks[_id].author,\n            tasks[_id].done\n        );\n    }\n\n    function getTaskIds() public view returns (uint256[] memory) {\n        return taskIds;\n    }\n}\n",
  "sourcePath": "/home/ngocphuc/Documents/github.com/blockchain/eth-todo-list/contracts/TodoList.sol",
  "compiler": {
    "name": "solc",
    "version": "0.8.10+commit.fc410830.Emscripten.clang"
  },
  "schemaVersion": "3.4.3",
  "updatedAt": "2021-12-21T16:19:04.282Z",
  "networkType": "ethereum",
  "devdoc": {
    "kind": "dev",
    "methods": {},
    "version": 1
  },
  "userdoc": {
    "kind": "user",
    "methods": {},
    "version": 1
  }
}